{
  "address": "0xAF63D8C715e96150d3675f9C2d07ae8D7d7A486A",
  "abi": [
    {
      "inputs": [
        {
          "internalType": "address",
          "name": "vrfCoordinatorV2",
          "type": "address"
        },
        {
          "internalType": "uint256",
          "name": "entranceFee",
          "type": "uint256"
        },
        {
          "internalType": "bytes32",
          "name": "gasLane",
          "type": "bytes32"
        },
        {
          "internalType": "uint64",
          "name": "subId",
          "type": "uint64"
        },
        {
          "internalType": "uint32",
          "name": "callbackGasLimit",
          "type": "uint32"
        },
        {
          "internalType": "uint256",
          "name": "interval",
          "type": "uint256"
        }
      ],
      "stateMutability": "nonpayable",
      "type": "constructor"
    },
    {
      "inputs": [
        {
          "internalType": "address",
          "name": "have",
          "type": "address"
        },
        {
          "internalType": "address",
          "name": "want",
          "type": "address"
        }
      ],
      "name": "OnlyCoordinatorCanFulfill",
      "type": "error"
    },
    {
      "inputs": [],
      "name": "Raffle__RaffleNotOpen",
      "type": "error"
    },
    {
      "inputs": [],
      "name": "Raffle__SendMoreToEnterRaffle",
      "type": "error"
    },
    {
      "inputs": [],
      "name": "Raffle__TransferFailed",
      "type": "error"
    },
    {
      "inputs": [
        {
          "internalType": "uint256",
          "name": "currentBalance",
          "type": "uint256"
        },
        {
          "internalType": "uint256",
          "name": "numPlayers",
          "type": "uint256"
        },
        {
          "internalType": "uint256",
          "name": "raffleState",
          "type": "uint256"
        }
      ],
      "name": "Raffle__UpkeepNotNeeded",
      "type": "error"
    },
    {
      "anonymous": false,
      "inputs": [
        {
          "indexed": true,
          "internalType": "address",
          "name": "player",
          "type": "address"
        }
      ],
      "name": "RaffleEnter",
      "type": "event"
    },
    {
      "anonymous": false,
      "inputs": [
        {
          "indexed": true,
          "internalType": "uint256",
          "name": "requestId",
          "type": "uint256"
        }
      ],
      "name": "RequestRaffleWinner",
      "type": "event"
    },
    {
      "anonymous": false,
      "inputs": [
        {
          "indexed": true,
          "internalType": "address",
          "name": "player",
          "type": "address"
        }
      ],
      "name": "WinnerPicked",
      "type": "event"
    },
    {
      "inputs": [
        {
          "internalType": "bytes",
          "name": "",
          "type": "bytes"
        }
      ],
      "name": "checkUpkeep",
      "outputs": [
        {
          "internalType": "bool",
          "name": "upkeepNeeded",
          "type": "bool"
        },
        {
          "internalType": "bytes",
          "name": "",
          "type": "bytes"
        }
      ],
      "stateMutability": "view",
      "type": "function"
    },
    {
      "inputs": [],
      "name": "enterRaffle",
      "outputs": [],
      "stateMutability": "payable",
      "type": "function"
    },
    {
      "inputs": [],
      "name": "getEntranceFee",
      "outputs": [
        {
          "internalType": "uint256",
          "name": "",
          "type": "uint256"
        }
      ],
      "stateMutability": "view",
      "type": "function"
    },
    {
      "inputs": [],
      "name": "getInterval",
      "outputs": [
        {
          "internalType": "uint256",
          "name": "",
          "type": "uint256"
        }
      ],
      "stateMutability": "view",
      "type": "function"
    },
    {
      "inputs": [],
      "name": "getLastTimeStamp",
      "outputs": [
        {
          "internalType": "uint256",
          "name": "",
          "type": "uint256"
        }
      ],
      "stateMutability": "view",
      "type": "function"
    },
    {
      "inputs": [],
      "name": "getNumPlayers",
      "outputs": [
        {
          "internalType": "uint256",
          "name": "",
          "type": "uint256"
        }
      ],
      "stateMutability": "view",
      "type": "function"
    },
    {
      "inputs": [
        {
          "internalType": "uint256",
          "name": "index",
          "type": "uint256"
        }
      ],
      "name": "getPlayer",
      "outputs": [
        {
          "internalType": "address",
          "name": "",
          "type": "address"
        }
      ],
      "stateMutability": "view",
      "type": "function"
    },
    {
      "inputs": [],
      "name": "getRecentWinner",
      "outputs": [
        {
          "internalType": "address",
          "name": "",
          "type": "address"
        }
      ],
      "stateMutability": "view",
      "type": "function"
    },
    {
      "inputs": [],
      "name": "getState",
      "outputs": [
        {
          "internalType": "enum Raffle.RaffleState",
          "name": "",
          "type": "uint8"
        }
      ],
      "stateMutability": "view",
      "type": "function"
    },
    {
      "inputs": [
        {
          "internalType": "bytes",
          "name": "",
          "type": "bytes"
        }
      ],
      "name": "performUpkeep",
      "outputs": [],
      "stateMutability": "nonpayable",
      "type": "function"
    },
    {
      "inputs": [
        {
          "internalType": "uint256",
          "name": "requestId",
          "type": "uint256"
        },
        {
          "internalType": "uint256[]",
          "name": "randomWords",
          "type": "uint256[]"
        }
      ],
      "name": "rawFulfillRandomWords",
      "outputs": [],
      "stateMutability": "nonpayable",
      "type": "function"
    }
  ],
  "transactionHash": "0x6ecd92ddca8f6978e73b8c715e46fb6995db66fa8517b267d003cbf7c0dbc330",
  "args": [
    "0x2ca8e0c643bde4c2e08ab1fa0da3401adad7734d",
    "10000000000000000",
    "0x79d3d8832d904592c0bf9818b621522c988bb8b0c05cdc3b15aea1b6e8db0c15",
    "1887",
    "500000",
    "30"
  ],
  "numDeployments": 1,
  "solcInputHash": "e8383cbe32ce36a6338aaadca2720f03",
  "bytecode": "0x6101606040523480156200001257600080fd5b506040516200178938038062001789833981810160405281019062000038919062000294565b858073ffffffffffffffffffffffffffffffffffffffff1660808173ffffffffffffffffffffffffffffffffffffffff1681525050508460a081815250508573ffffffffffffffffffffffffffffffffffffffff1660c08173ffffffffffffffffffffffffffffffffffffffff16815250508360e081815250508267ffffffffffffffff166101008167ffffffffffffffff16815250508163ffffffff166101208163ffffffff16815250508061014081815250506000600160146101000a81548160ff0219169083600181111562000116576200011562000330565b5b0217905550426002819055505050505050506200035f565b600080fd5b600073ffffffffffffffffffffffffffffffffffffffff82169050919050565b6000620001608262000133565b9050919050565b620001728162000153565b81146200017e57600080fd5b50565b600081519050620001928162000167565b92915050565b6000819050919050565b620001ad8162000198565b8114620001b957600080fd5b50565b600081519050620001cd81620001a2565b92915050565b6000819050919050565b620001e881620001d3565b8114620001f457600080fd5b50565b6000815190506200020881620001dd565b92915050565b600067ffffffffffffffff82169050919050565b6200022d816200020e565b81146200023957600080fd5b50565b6000815190506200024d8162000222565b92915050565b600063ffffffff82169050919050565b6200026e8162000253565b81146200027a57600080fd5b50565b6000815190506200028e8162000263565b92915050565b60008060008060008060c08789031215620002b457620002b36200012e565b5b6000620002c489828a0162000181565b9650506020620002d789828a01620001bc565b9550506040620002ea89828a01620001f7565b9450506060620002fd89828a016200023c565b93505060806200031089828a016200027d565b92505060a06200032389828a01620001bc565b9150509295509295509295565b7f4e487b7100000000000000000000000000000000000000000000000000000000600052602160045260246000fd5b60805160a05160c05160e0516101005161012051610140516113ba620003cf6000396000818161075201526107e30152600061061f015260006105fc015260006105db0152600061059f01526000818161027e015261037b0152600081816102bb015261030f01526113ba6000f3fe60806040526004361061009c5760003560e01c8063473f1ddc11610064578063473f1ddc1461015357806355c9e9261461017e5780636e04ff0d146101a957806391ad27b4146101e7578063c1c244e814610212578063e55ae4e81461023d5761009c565b806309bc33a7146100a15780631865c57d146100cc5780631fe543e3146100f75780632cfcc539146101205780634585e33b1461012a575b600080fd5b3480156100ad57600080fd5b506100b661027a565b6040516100c39190610b44565b60405180910390f35b3480156100d857600080fd5b506100e16102a2565b6040516100ee9190610bd6565b60405180910390f35b34801561010357600080fd5b5061011e60048036038101906101199190610d8a565b6102b9565b005b610128610379565b005b34801561013657600080fd5b50610151600480360381019061014c9190610e41565b6104e8565b005b34801561015f57600080fd5b506101686106d8565b6040516101759190610ecf565b60405180910390f35b34801561018a57600080fd5b50610193610702565b6040516101a09190610b44565b60405180910390f35b3480156101b557600080fd5b506101d060048036038101906101cb9190610f9f565b61070e565b6040516101de929190611082565b60405180910390f35b3480156101f357600080fd5b506101fc6107df565b6040516102099190610b44565b60405180910390f35b34801561021e57600080fd5b50610227610807565b6040516102349190610b44565b60405180910390f35b34801561024957600080fd5b50610264600480360381019061025f91906110b2565b610811565b6040516102719190610ecf565b60405180910390f35b60007f0000000000000000000000000000000000000000000000000000000000000000905090565b6000600160149054906101000a900460ff16905090565b7f000000000000000000000000000000000000000000000000000000000000000073ffffffffffffffffffffffffffffffffffffffff163373ffffffffffffffffffffffffffffffffffffffff161461036b57337f00000000000000000000000000000000000000000000000000000000000000006040517f1cf993f40000000000000000000000000000000000000000000000000000000081526004016103629291906110df565b60405180910390fd5b6103758282610858565b5050565b7f00000000000000000000000000000000000000000000000000000000000000003410156103d3576040517f3038c00a00000000000000000000000000000000000000000000000000000000815260040160405180910390fd5b600060018111156103e7576103e6610b5f565b5b600160149054906101000a900460ff16600181111561040957610408610b5f565b5b14610440576040517fd24a271400000000000000000000000000000000000000000000000000000000815260040160405180910390fd5b6000339080600181540180825580915050600190039060005260206000200160009091909190916101000a81548173ffffffffffffffffffffffffffffffffffffffff021916908373ffffffffffffffffffffffffffffffffffffffff1602179055503373ffffffffffffffffffffffffffffffffffffffff167f0805e1d667bddb8a95f0f09880cf94f403fb596ce79928d9f29b74203ba284d460405160405180910390a2565b60006105026040518060200160405280600081525061070e565b509050806105715747600080549050600160149054906101000a900460ff16600181111561053357610532610b5f565b5b6040517f584327aa00000000000000000000000000000000000000000000000000000000815260040161056893929190611108565b60405180910390fd5b60018060146101000a81548160ff0219169083600181111561059657610595610b5f565b5b021790555060007f000000000000000000000000000000000000000000000000000000000000000073ffffffffffffffffffffffffffffffffffffffff16635d3b1d307f00000000000000000000000000000000000000000000000000000000000000007f000000000000000000000000000000000000000000000000000000000000000060037f000000000000000000000000000000000000000000000000000000000000000060016040518663ffffffff1660e01b81526004016106609594939291906111b7565b6020604051808303816000875af115801561067f573d6000803e3d6000fd5b505050506040513d601f19601f820116820180604052508101906106a3919061121f565b9050807fde6349b018d6c03d837b67d9a198a6ba4842546f2295fe963fae141e5dbaef8160405160405180910390a250505050565b6000600160009054906101000a900473ffffffffffffffffffffffffffffffffffffffff16905090565b60008080549050905090565b60006060600160149054906101000a900460ff16600181111561073457610733610b5f565b5b6000600181111561074857610747610b5f565b5b14801561078157507f00000000000000000000000000000000000000000000000000000000000000006002544261077f919061127b565b115b8015610791575060008080549050115b801561079d5750600047115b9150816040518060400160405280600381526020017f307830000000000000000000000000000000000000000000000000000000000081525091509150915091565b60007f0000000000000000000000000000000000000000000000000000000000000000905090565b6000600254905090565b6000808281548110610826576108256112af565b5b9060005260206000200160009054906101000a900473ffffffffffffffffffffffffffffffffffffffff169050919050565b60008060008054905083600081518110610875576108746112af565b5b6020026020010151610887919061130d565b81548110610898576108976112af565b5b9060005260206000200160009054906101000a900473ffffffffffffffffffffffffffffffffffffffff16905080600160006101000a81548173ffffffffffffffffffffffffffffffffffffffff021916908373ffffffffffffffffffffffffffffffffffffffff16021790555060008173ffffffffffffffffffffffffffffffffffffffff164760405161092c9061136f565b60006040518083038185875af1925050503d8060008114610969576040519150601f19603f3d011682016040523d82523d6000602084013e61096e565b606091505b50509050806109a9576040517fa1d04b3900000000000000000000000000000000000000000000000000000000815260040160405180910390fd5b600067ffffffffffffffff8111156109c4576109c3610c47565b5b6040519080825280602002602001820160405280156109f25781602001602082028036833780820191505090505b5060009080519060200190610a08929190610a84565b506000600160146101000a81548160ff02191690836001811115610a2f57610a2e610b5f565b5b0217905550426002819055508173ffffffffffffffffffffffffffffffffffffffff167f5b690ec4a06fe979403046eaeea5b3ce38524683c3001f662c8b5a829632f7df60405160405180910390a250505050565b828054828255906000526020600020908101928215610afd579160200282015b82811115610afc5782518260006101000a81548173ffffffffffffffffffffffffffffffffffffffff021916908373ffffffffffffffffffffffffffffffffffffffff16021790555091602001919060010190610aa4565b5b509050610b0a9190610b0e565b5090565b5b80821115610b27576000816000905550600101610b0f565b5090565b6000819050919050565b610b3e81610b2b565b82525050565b6000602082019050610b596000830184610b35565b92915050565b7f4e487b7100000000000000000000000000000000000000000000000000000000600052602160045260246000fd5b60028110610b9f57610b9e610b5f565b5b50565b6000819050610bb082610b8e565b919050565b6000610bc082610ba2565b9050919050565b610bd081610bb5565b82525050565b6000602082019050610beb6000830184610bc7565b92915050565b6000604051905090565b600080fd5b600080fd5b610c0e81610b2b565b8114610c1957600080fd5b50565b600081359050610c2b81610c05565b92915050565b600080fd5b6000601f19601f8301169050919050565b7f4e487b7100000000000000000000000000000000000000000000000000000000600052604160045260246000fd5b610c7f82610c36565b810181811067ffffffffffffffff82111715610c9e57610c9d610c47565b5b80604052505050565b6000610cb1610bf1565b9050610cbd8282610c76565b919050565b600067ffffffffffffffff821115610cdd57610cdc610c47565b5b602082029050602081019050919050565b600080fd5b6000610d06610d0184610cc2565b610ca7565b90508083825260208201905060208402830185811115610d2957610d28610cee565b5b835b81811015610d525780610d3e8882610c1c565b845260208401935050602081019050610d2b565b5050509392505050565b600082601f830112610d7157610d70610c31565b5b8135610d81848260208601610cf3565b91505092915050565b60008060408385031215610da157610da0610bfb565b5b6000610daf85828601610c1c565b925050602083013567ffffffffffffffff811115610dd057610dcf610c00565b5b610ddc85828601610d5c565b9150509250929050565b600080fd5b60008083601f840112610e0157610e00610c31565b5b8235905067ffffffffffffffff811115610e1e57610e1d610de6565b5b602083019150836001820283011115610e3a57610e39610cee565b5b9250929050565b60008060208385031215610e5857610e57610bfb565b5b600083013567ffffffffffffffff811115610e7657610e75610c00565b5b610e8285828601610deb565b92509250509250929050565b600073ffffffffffffffffffffffffffffffffffffffff82169050919050565b6000610eb982610e8e565b9050919050565b610ec981610eae565b82525050565b6000602082019050610ee46000830184610ec0565b92915050565b600080fd5b600067ffffffffffffffff821115610f0a57610f09610c47565b5b610f1382610c36565b9050602081019050919050565b82818337600083830152505050565b6000610f42610f3d84610eef565b610ca7565b905082815260208101848484011115610f5e57610f5d610eea565b5b610f69848285610f20565b509392505050565b600082601f830112610f8657610f85610c31565b5b8135610f96848260208601610f2f565b91505092915050565b600060208284031215610fb557610fb4610bfb565b5b600082013567ffffffffffffffff811115610fd357610fd2610c00565b5b610fdf84828501610f71565b91505092915050565b60008115159050919050565b610ffd81610fe8565b82525050565b600081519050919050565b600082825260208201905092915050565b60005b8381101561103d578082015181840152602081019050611022565b60008484015250505050565b600061105482611003565b61105e818561100e565b935061106e81856020860161101f565b61107781610c36565b840191505092915050565b60006040820190506110976000830185610ff4565b81810360208301526110a98184611049565b90509392505050565b6000602082840312156110c8576110c7610bfb565b5b60006110d684828501610c1c565b91505092915050565b60006040820190506110f46000830185610ec0565b6111016020830184610ec0565b9392505050565b600060608201905061111d6000830186610b35565b61112a6020830185610b35565b6111376040830184610b35565b949350505050565b6000819050919050565b6111528161113f565b82525050565b600067ffffffffffffffff82169050919050565b61117581611158565b82525050565b600061ffff82169050919050565b6111928161117b565b82525050565b600063ffffffff82169050919050565b6111b181611198565b82525050565b600060a0820190506111cc6000830188611149565b6111d9602083018761116c565b6111e66040830186611189565b6111f360608301856111a8565b61120060808301846111a8565b9695505050505050565b60008151905061121981610c05565b92915050565b60006020828403121561123557611234610bfb565b5b60006112438482850161120a565b91505092915050565b7f4e487b7100000000000000000000000000000000000000000000000000000000600052601160045260246000fd5b600061128682610b2b565b915061129183610b2b565b92508282039050818111156112a9576112a861124c565b5b92915050565b7f4e487b7100000000000000000000000000000000000000000000000000000000600052603260045260246000fd5b7f4e487b7100000000000000000000000000000000000000000000000000000000600052601260045260246000fd5b600061131882610b2b565b915061132383610b2b565b925082611333576113326112de565b5b828206905092915050565b600081905092915050565b50565b600061135960008361133e565b915061136482611349565b600082019050919050565b600061137a8261134c565b915081905091905056fea2646970667358221220396d426a71366d67b5938f73f8e1c336cc6728eef855101d908b70dc5be935b164736f6c63430008110033",
  "devdoc": {
    "kind": "dev",
    "methods": {},
    "version": 1
  },
  "userdoc": {
    "kind": "user",
    "methods": {},
    "version": 1
  },
  "storageLayout": {
    "storage": [
      {
        "astId": 196,
        "contract": "contracts/Raffle.sol:Raffle",
        "label": "s_players",
        "offset": 0,
        "slot": "0",
        "type": "t_array(t_address_payable)dyn_storage"
      },
      {
        "astId": 215,
        "contract": "contracts/Raffle.sol:Raffle",
        "label": "s_recentWinner",
        "offset": 0,
        "slot": "1",
        "type": "t_address"
      },
      {
        "astId": 218,
        "contract": "contracts/Raffle.sol:Raffle",
        "label": "s_state",
        "offset": 20,
        "slot": "1",
        "type": "t_enum(RaffleState)191"
      },
      {
        "astId": 220,
        "contract": "contracts/Raffle.sol:Raffle",
        "label": "s_lastTimeStamp",
        "offset": 0,
        "slot": "2",
        "type": "t_uint256"
      }
    ],
    "types": {
      "t_address": {
        "encoding": "inplace",
        "label": "address",
        "numberOfBytes": "20"
      },
      "t_address_payable": {
        "encoding": "inplace",
        "label": "address payable",
        "numberOfBytes": "20"
      },
      "t_array(t_address_payable)dyn_storage": {
        "base": "t_address_payable",
        "encoding": "dynamic_array",
        "label": "address payable[]",
        "numberOfBytes": "32"
      },
      "t_enum(RaffleState)191": {
        "encoding": "inplace",
        "label": "enum Raffle.RaffleState",
        "numberOfBytes": "1"
      },
      "t_uint256": {
        "encoding": "inplace",
        "label": "uint256",
        "numberOfBytes": "32"
      }
    }
  }
}